{
  "_format": "hh-sol-artifact-1",
  "contractName": "faucet",
  "sourceName": "contracts/faucet.sol",
  "abi": [
    {
      "inputs": [
        {
          "internalType": "address",
          "name": "_testTokenAddress",
          "type": "address"
        }
      ],
      "stateMutability": "nonpayable",
      "type": "constructor"
    },
    {
      "anonymous": false,
      "inputs": [
        {
          "indexed": true,
          "internalType": "address",
          "name": "previousOwner",
          "type": "address"
        },
        {
          "indexed": true,
          "internalType": "address",
          "name": "newOwner",
          "type": "address"
        }
      ],
      "name": "OwnershipTransferred",
      "type": "event"
    },
    {
      "inputs": [
        {
          "internalType": "address",
          "name": "_newToken",
          "type": "address"
        }
      ],
      "name": "changeToken",
      "outputs": [],
      "stateMutability": "nonpayable",
      "type": "function"
    },
    {
      "inputs": [],
      "name": "checkFaucetBalance",
      "outputs": [
        {
          "internalType": "uint256",
          "name": "",
          "type": "uint256"
        }
      ],
      "stateMutability": "view",
      "type": "function"
    },
    {
      "inputs": [
        {
          "internalType": "uint256",
          "name": "_amount",
          "type": "uint256"
        }
      ],
      "name": "fundFaucet",
      "outputs": [],
      "stateMutability": "nonpayable",
      "type": "function"
    },
    {
      "inputs": [
        {
          "internalType": "address",
          "name": "_destinationWallet",
          "type": "address"
        }
      ],
      "name": "getTokens",
      "outputs": [],
      "stateMutability": "nonpayable",
      "type": "function"
    },
    {
      "inputs": [],
      "name": "owner",
      "outputs": [
        {
          "internalType": "address",
          "name": "",
          "type": "address"
        }
      ],
      "stateMutability": "view",
      "type": "function"
    },
    {
      "inputs": [],
      "name": "renounceOwnership",
      "outputs": [],
      "stateMutability": "nonpayable",
      "type": "function"
    },
    {
      "inputs": [],
      "name": "testToken",
      "outputs": [
        {
          "internalType": "contract IERC20",
          "name": "",
          "type": "address"
        }
      ],
      "stateMutability": "view",
      "type": "function"
    },
    {
      "inputs": [
        {
          "internalType": "address",
          "name": "newOwner",
          "type": "address"
        }
      ],
      "name": "transferOwnership",
      "outputs": [],
      "stateMutability": "nonpayable",
      "type": "function"
    }
  ],
  "bytecode": "0x608060405234801561001057600080fd5b50604051610c05380380610c0583398101604081905261002f916100be565b6100383361005d565b600180546001600160a01b0319166001600160a01b039290921691909117905561010a565b600080546001600160a01b038381166001600160a01b0319831681178455604051919092169283917f8be0079c531659141344cd1fd0a4f28419497f9722a3daafe3b4186f6b6457e09190a35050565b80516100b8816100f3565b92915050565b6000602082840312156100cf578081fd5b6100db838284016100ad565b9392505050565b60006001600160a01b0382166100b8565b6100fc816100e2565b811461010757600080fd5b50565b610aec806101196000396000f3fe608060405234801561001057600080fd5b50600436106100885760003560e01c80638da5cb5b1161005b5780638da5cb5b146100e6578063a090f540146100ff578063ae0140b414610114578063f2fde38b1461012757600080fd5b8063450efe211461008d57806366829b16146100a25780636895179d146100b5578063715018a6146100de575b600080fd5b6100a061009b3660046106de565b61013a565b005b6100a06100b03660046106de565b610225565b6001546100c8906001600160a01b031681565b6040516100d591906109bf565b60405180910390f35b6100a0610289565b6000546001600160a01b03166040516100d5919061096e565b6101076102bf565b6040516100d59190610a3e565b6100a0610122366004610718565b61035e565b6100a06101353660046106de565b6103a0565b6001546040517f70a08231000000000000000000000000000000000000000000000000000000008152683635c9adc5dea00000916001600160a01b0316906370a082319061018c90309060040161096e565b60206040518083038186803b1580156101a457600080fd5b505afa1580156101b8573d6000803e3d6000fd5b505050506040513d601f19601f820116820180604052508101906101dc9190610735565b116102025760405162461bcd60e51b81526004016101f9906109ee565b60405180910390fd5b600154610222906001600160a01b031682683635c9adc5dea000006103f9565b50565b6000546001600160a01b0316331461024f5760405162461bcd60e51b81526004016101f990610a0e565b600180547fffffffffffffffffffffffff0000000000000000000000000000000000000000166001600160a01b0392909216919091179055565b6000546001600160a01b031633146102b35760405162461bcd60e51b81526004016101f990610a0e565b6102bd6000610481565b565b6001546040517f70a082310000000000000000000000000000000000000000000000000000000081526000916001600160a01b0316906370a082319061030990309060040161096e565b60206040518083038186803b15801561032157600080fd5b505afa158015610335573d6000803e3d6000fd5b505050506040513d601f19601f820116820180604052508101906103599190610735565b905090565b6000546001600160a01b031633146103885760405162461bcd60e51b81526004016101f990610a0e565b600154610222906001600160a01b03163330846104e9565b6000546001600160a01b031633146103ca5760405162461bcd60e51b81526004016101f990610a0e565b6001600160a01b0381166103f05760405162461bcd60e51b81526004016101f9906109de565b61022281610481565b61047c8363a9059cbb60e01b84846040516024016104189291906109a4565b60408051601f198184030181529190526020810180517bffffffffffffffffffffffffffffffffffffffffffffffffffffffff167fffffffff0000000000000000000000000000000000000000000000000000000090931692909217909152610510565b505050565b600080546001600160a01b038381167fffffffffffffffffffffffff0000000000000000000000000000000000000000831681178455604051919092169283917f8be0079c531659141344cd1fd0a4f28419497f9722a3daafe3b4186f6b6457e09190a35050565b61050a846323b872dd60e01b8585856040516024016104189392919061097c565b50505050565b6000610565826040518060400160405280602081526020017f5361666545524332303a206c6f772d6c6576656c2063616c6c206661696c6564815250856001600160a01b031661059f9092919063ffffffff16565b80519091501561047c578080602001905181019061058391906106fb565b61047c5760405162461bcd60e51b81526004016101f990610a2e565b60606105ae84846000856105b8565b90505b9392505050565b6060824710156105da5760405162461bcd60e51b81526004016101f9906109fe565b843b6105f85760405162461bcd60e51b81526004016101f990610a1e565b600080866001600160a01b031685876040516106149190610964565b60006040518083038185875af1925050503d8060008114610651576040519150601f19603f3d011682016040523d82523d6000602084013e610656565b606091505b5091509150610666828286610673565b925050505b949350505050565b606083156106825750816105b1565b8251156106925782518084602001fd5b8160405162461bcd60e51b81526004016101f991906109cd565b80356106b781610a94565b92915050565b80516106b781610aa8565b80356106b781610ab0565b80516106b781610ab0565b6000602082840312156106ef578081fd5b6105b1838284016106ac565b60006020828403121561070c578081fd5b6105b1838284016106bd565b600060208284031215610729578081fd5b6105b1838284016106c8565b600060208284031215610746578081fd5b6105b1838284016106d3565b61075b81610a4c565b82525050565b600061076b825190565b610779818560208601610a68565b9290920192915050565b61075b81610a5d565b6000610796825190565b8084526020840193506107ad818560208601610a68565b601f01601f19169290920192915050565b60268152602081017f4f776e61626c653a206e6577206f776e657220697320746865207a65726f206181527f6464726573730000000000000000000000000000000000000000000000000000602082015290505b60400190565b600c8152602081017f46617563657420456d7074790000000000000000000000000000000000000000815290505b60200190565b60268152602081017f416464726573733a20696e73756666696369656e742062616c616e636520666f81527f722063616c6c000000000000000000000000000000000000000000000000000060208201529050610812565b60208082527f4f776e61626c653a2063616c6c6572206973206e6f7420746865206f776e65729101908152610846565b601d8152602081017f416464726573733a2063616c6c20746f206e6f6e2d636f6e747261637400000081529050610846565b602a8152602081017f5361666545524332303a204552433230206f7065726174696f6e20646964206e81527f6f7420737563636565640000000000000000000000000000000000000000000060208201529050610812565b8061075b565b6106b78183610761565b602081016106b78284610752565b6060810161098a8286610752565b6109976020830185610752565b61066b604083018461095e565b604081016109b28285610752565b6105b1602083018461095e565b602081016106b78284610783565b602080825281016105b1818461078c565b602080825281016106b7816107be565b602080825281016106b781610818565b602080825281016106b78161084c565b602080825281016106b7816108a4565b602080825281016106b7816108d4565b602080825281016106b781610906565b602081016106b7828461095e565b60006001600160a01b0382166106b7565b60006106b782610a4c565b60005b83811015610a83578181015183820152602001610a6b565b8381111561050a5750506000910152565b610a9d81610a4c565b811461022257600080fd5b801515610a9d565b80610a9d56fea264697066735822122018ce762f101a9bddbe1cc269ce39d08422211b9f58758d1f0aec33a05089865964736f6c63430008040033",
  "linkReferences": {},
  "deployedLinkReferences": {}
}